:020000040800F2
:100000000000022031290008812900088129000808
:1000100081290008812900088129000800000000CA
:10002000000000000000000000000000812900081E
:1000300081290008000000008129000869270008C4
:1000400081290008812900088129000881290008E8
:1000500081290008812900088129000881290008D8
:1000600081290008812900088129000881290008C8
:1000700081290008812900088129000881290008B8
:1000800081290008812900088129000881290008A8
:100090008129000881290008812900088129000898
:1000A0008129000881290008812900088129000888
:1000B0008129000881290008812900088129000878
:1000C0008129000881290008812900088129000868
:1000D000812900087127000881290008812900086A
:1000E000812700088129000881290008812900084A
:1000F0008129000881290008812900088129000838
:100100008129000881290008812900088129000827
:100110008129000881290008812900088129000817
:100120008129000881290008812900088129000807
:1001300081290008812900088129000881290008F7
:1001400081290008812900088129000881290008E7
:1001500081290008812900088129000881290008D7
:1001600081290008812900088129000881290008C7
:100170008129000881290008812900080000000069
:080180008D2700088129000809
:100188000348044B834202D0034B03B1184770471E
:1001980040040020400400200000000005480649F3
:1001A8000B1AD90F01EBA301491002D0034B03B17D
:1001B8001847704740040020400400200000000059
:1001C80010B5064C237843B9FFF7DAFF044B13B197
:1001D8000448AFF300800123237010BD40040020C1
:1001E800000000009829000808B5044B1BB1044919
:1001F8000448AFF30080BDE80840CFE700000000E6
:10020800440400209829000853B94AB9002908BFB6
:1002180000281CBF4FF0FF314FF0FF3000F074B9D9
:10022800ADF1080C6DE904CE00F006F8DDF804E045
:10023800DDE9022304B070472DE9F047089E0D461A
:1002480004468846002B4DD18A42944668D9B2FAB2
:1002580082F252B101FA02F3C2F1200120FA01F14F
:100268000CFA02FC41EA030894404FEA1C45210CB1
:10027800B8FBF5FE1FFA8CF705FB1E8341EA034322
:100288000EFB07F199420BD91CEB03030EF1FF306B
:1002980080F01E81994240F21B81AEF1020E634448
:1002A8005B1AA4B2B3FBF5F005FB103344EA034430
:1002B80000FB07F7A7420AD91CEB040400F1FF333F
:1002C80080F00881A74240F2058164440238E41BAB
:1002D80040EA0E4000211EB1D4400023C6E9004385
:1002E800BDE8F0878B4208D9002E00F0EE8000218F
:1002F800C6E900050846BDE8F087B3FA83F100298E
:100308004AD1AB4202D3824200F2F980841A65EBEB
:10031800030301209846002EE2D0C6E90048DFE733
:1003280002B9FFDEB2FA82F2002A40F09180A1EB16
:100338000C054FEA1C471FFA8CFE0121B5FBF7F3A9
:1003480007FB1350250C45EA00450EFB03F0A842B5
:1003580008D91CEB050503F1FF3802D2A84200F2C8
:10036800CB8043462D1AA4B2B5FBF7F007FB105516
:1003780044EA05440EFB00FEA64508D91CEB04041C
:1003880000F1FF3502D2A64500F2BB802846A4EB57
:100398000E0440EA03409EE7C1F120078B4022FA91
:1003A80007FC4CEA030C20FA07F405FA01F31C4396
:1003B800FD404FEA1C4900FA01F3B5FBF9F8200C9F
:1003C8001FFA8CFE09FB185540EA054508FB0EF09C
:1003D800A84202FA01F20BD91CEB050508F1FF3A15
:1003E80080F08880A84240F28580A8F10208654420
:1003F8002D1AA4B2B5FBF9F009FB105544EA0545DE
:1004080000FB0EFEAE4508D91CEB050500F1FF34D4
:100418006CD2AE456AD90238654440EA0840A0FB70
:100428000294A5EB0E05A542C846A64656D353D05E
:100438005EB1B3EB080265EB0E0505FA07F722FA81
:1004480001F3CD401F43C6E900750021BDE8F087E0
:10045800C2F1200320FA03F10CFA02FC25FA03F397
:1004680095400D434FEA1C471FFA8CFEB3FBF7F18A
:1004780007FB11302B0C43EA004301FB0EF09842B6
:1004880004FA02F408D91CEB030301F1FF382FD258
:1004980098422DD9023963441B1AADB2B3FBF7F069
:1004A80007FB103345EA034500FB0EF3AB4208D9BE
:1004B8001CEB050500F1FF3816D2AB4214D90238FF
:1004C8006544ED1A40EA014138E73146304607E70E
:1004D8008646E5E61846FAE64B45A9D2B9EB020886
:1004E80064EB0C0E0138A3E74046EAE7204694E7A0
:1004F8004146D1E7D0467BE7023B654432E70846F0
:1005080009E76444023842E7704700BF0023014608
:100518001A46184600F08CB838B5084B084D5B1BD6
:100528009C1007D0043B1D44013C55F804399847FA
:10053800002CF9D1BDE8384002F030BAD8290008BB
:10054800D429000870B50D4E0D4D761BB61006D097
:10055800002455F8043B01349847A642F9D1094EC6
:10056800094D761B02F014FAB61006D0002455F88F
:10057800043B01349847A642F9D170BDCC29000844
:10058800CC290008D4290008CC290008830730B5F5
:1005980048D0541E002A3FD0CAB2034601E0013CAD
:1005A8003AD303F8012B9D07F9D1032C2DD9CDB2ED
:1005B80045EA05250F2C45EA054536D9A4F1100270
:1005C80022F00F0C03F1200EE6444FEA121C03F14F
:1005D800100242E9045542E9025510327245F8D139
:1005E8000CF1010214F00C0F03EB021204F00F0CD3
:1005F80013D0ACF1040323F003030433134442F88B
:10060800045B9342FBD10CF003042CB1CAB21C4426
:1006180003F8012B9C42FBD130BD64461346002CE5
:10062800F4D1F9E703461446BFE71A46A446E0E7C3
:1006380070B4184C2568D5F848411CB365681F2D5F
:1006480025DC38B9AB1C0135656044F8231000205F
:1006580070BC704704EB850C0228CCF88820D4F8CD
:1006680088614FF0010202FA05F246EA0206C4F870
:100678008861CCF80831E5D1D4F88C311343C4F83B
:100688008C31DFE705F5A674C5F84841D6E74FF089
:10069800FF30DDE7B029000810B5044601F0B0F8D6
:1006A800064BA3FB0030800900F09CF8002221468D
:1006B8004FF0FF3000F052F8002010BDD34D62100B
:1006C80008B50B4B1A6842F400721A601A6842F4B3
:1006D80080621A601A6842F480721A60032000F07F
:1006E8002BF80020FFF7D8FF02F022F8002008BD01
:1006F800003C0240014B1868704700BF5C040020B2
:1007080010B582B00190FFF7F5FF0446FFF7F2FF3E
:10071800001B019B9842F9D302B010BD4FF0E022B4
:10072800136923F00203136170474FF0E022136945
:1007380043F0020313617047074AD36823F4E06368
:100748001B041B0C000200F4E060034343F0BF638A
:1007580043F40033D360704700ED00E000B5194B57
:10076800DB68C3F30223C3F1070CBCF1040F28BFF5
:100778004FF0040C03F1040EBEF1060F18D9033B29
:100788004FF0FF3E0EFA0CFC21EA0C0199400EFADC
:1007980003F322EA0303194300280BDB0901C9B25A
:1007A80000F1604000F5614080F800135DF804FB3B
:1007B8000023E5E700F00F000901C9B2024B195404
:1007C800F4E700BF00ED00E014ED00E000F01F02C8
:1007D800400901239340024A42F82030704700BF85
:1007E80000E100E00138B0F1807F0BD24FF0E02348
:1007F8005861054AF02182F82310002098610722E9
:100808001A6170470120704700ED00E068B110B52B
:10081800044643792BB102236371012363710020DD
:1008280010BD037101F04CFCF5E701207047000092
:1008380000230F2B00F2DC80F0B583B03AE00822E9
:1008480000E00022AA40324302346A4D45F82420D1
:10085800694A14686FEA0C0224EA0C054E6816F41B
:10086800803F01D04CEA0405634C2560646802EAC5
:1008780004054E6816F4003F01D04CEA04055E4CAE
:100888006560A46802EA04054E6816F4801F01D06A
:100898004CEA0405584CA560E46822404D6815F4FC
:1008A800001F01D04CEA0402534CE26001330F2BC5
:1008B80000F29C8001229A400C6804EA020C32EA99
:1008C8000404F3D14C68022C01D0122C10D1DD089D
:1008D800083550F8257003F00704A6000F24B4402B
:1008E80027EA040E0C69B44044EA0E0440F8254097
:1008F80006684FEA430E032404FA0EF4E54326EA99
:1009080004064C6804F0030404FA0EF4344304604B
:100918004C68661E012E03D9112C01D0122C0FD160
:1009280086682E40CC6804FA0EF434438460446828
:1009380024EA02024C68C4F300149C401443446047
:10094800C26815408A6802FA0EF22A43C2604A68F1
:1009580012F0805FAAD0294A546C44F4804454644D
:10096800526C02F480420192019A9C08A51C214A0B
:1009780052F8256003F0030295000F22AA4026EAE8
:1009880002061F4A90423FF45CAF02F58062904233
:100998001ED002F5806290421CD002F5806290421F
:1009A8001AD002F58062904218D002F58062904217
:1009B80016D002F58062904214D002F5806290420F
:1009C80012D002F5806290423FF439AF092239E72C
:1009D800012237E7022235E7032233E7042231E711
:1009E80005222FE706222DE707222BE703B0F0BDEB
:1009F800704700BF00380140003C01400038024009
:100A0800000002400AB181617047090481617047A2
:100A180008B5054B5B69034200D108BD024B58611C
:100A280001F078FCF9E700BF003C0140F8B5044646
:100A38000D461646FFF75EFE07462FE01A6842F499
:100A480000721A6023686FF480625A610423A363FA
:100A5800012084F83500002384F834302CE026B1D6
:100A6800FFF748FEC01BB04218D9012384F835307F
:100A7800002384F8343003201EE023689B6925EAAC
:100A880003039BB2003B18BF0123A3B123685A6933
:100A980012F4806FD2D1B6F1FF3FE0D1C5F307431E
:100AA800012BEAD123685B6925EA03039BB2003B6B
:100AB80018BF0123E9E70020F8BD2DE9F0410646FB
:100AC8000C4690461D46FFF715FE0746B8F1000F85
:100AD8001AD043E025B1FFF70DFEC01BA84213D979
:100AE800012386F83530002386F83430032019E0D6
:100AF80033689B6924EA03039BB2003B18BF0123B8
:100B08007BB1B5F1FF3FE5D1C4F30743012BEFD12A
:100B180033685B6924EA03039BB2003B18BF0123D7
:100B2800EEE74046BDE8F08125B1FFF7E3FDC01BC5
:100B3800A84213D9012386F83530002386F83430CB
:100B48000320EFE733689A6924EA020292B2B2FA04
:100B580082F252097AB1B5F1FF3FE5D1C4F30743F8
:100B6800012BEFD133685A6924EA020292B2B2FA31
:100B780082F25209EEE70020D4E700002DE9F041A7
:100B880082B004460D4690461F46089E03681968C1
:100B980041F480711960334600224FF00111FFF7CC
:100BA8008CFF002834D1236805F0FE051D6132460C
:100BB8001B492046FFF73AFF30B1A36B042B01D045
:100BC800032026E0012024E023685A6901929B69EA
:100BD8000193019B3346002212492046FFF76DFF1F
:100BE800D0B9012F04D123685FFA88F61E6110E09E
:100BF80023684FEA18221A61334600220949204621
:100C0800FFF75BFF50B923685FFA88F61E6100E0C2
:100C1800032002B0BDE8F0810320FAE70320F8E7DB
:100C280002000100800001002DE9F04383B0044672
:100C38000D46164698460A9F0368196841F4806174
:100C480019600368196841F4807119603B460022F5
:100C58004FF00111FFF731FF00285AD15FFA85F9EB
:100C6800236805F0FE051D613A4630492046FFF726
:100C7800DDFE30B1A36B042B01D003204AE0012034
:100C880048E023685A6901929B690193019B3B469E
:100C9800002227492046FFF710FF00283DD1B8F170
:100CA800010F26D12368F6B21E613B460022204977
:100CB8002046FFF702FF002833D12268136843F467
:100CC800807313603B4600224FF001112046FFF766
:100CD800F4FE40BB226849F0010313613A46134908
:100CE8002046FFF7A3FEA8B1A36B042B0FD0032067
:100CF80010E02368320A1A613B4600220C4920465C
:100D0800FFF7DBFE58B92368F6B21E61CDE7012074
:100D180000E0032003B0BDE8F0830320FAE70320D6
:100D2800F8E70320F6E70320F4E700BF020001001C
:100D38008000010000287ED010B5044690F83530B8
:100D4800002B3ED0022384F835302268136823F044
:100D58000103136000F06EFD384BA3FB00239B0CCE
:100D6800226853606168364A91422FD8013322685D
:100D780013626368324A934232D85B00B0FBF3F0E7
:100D880040F6FC73184200D104202368D861E36957
:100D9800216A22680B4313602369E16822680B43C8
:100DA80093606369A16922680B43D3602268136862
:100DB80043F0010313600020A063012384F8353059
:100DC80010BD80F8343001F06FFABBE74FF496722B
:100DD80002FB03F31B4AA2FB03239B090133C6E76B
:100DE800A16889B903EB4302B0FBF2F2C2F30B022C
:100DF800B2FA82F25209E2B991B903EB4303B0FBAC
:100E0800F3F040F40040C0E703EB830202EB8202F8
:100E1800B0FBF2F2C2F30B02B2FA82F25209EAE72D
:100E280003EB830303EB8303B0FBF3F040F4404090
:100E3800ABE70120A9E70120704700BF83DE1B4311
:100E4800A0860100D34D62102DE9F04383B0BDF8B0
:100E58002C6090F83550EDB2012D6AD104460F464A
:100E6800914698460A9B002B64D0002E62D042F22D
:100E7800107301223549FFF720FE00285ED194F84F
:100E88003430012B5CD0012384F834302268136895
:100E980023F400631360322384F835300023A363FE
:100EA8000C9B009343464A4639462046FFF766FEA8
:100EB80068B1A36B042B04D0002384F834300325D5
:100EC80038E0002384F8343034E01E460A92E6B154
:100ED8000C9B00221E492046FFF7EFFD002831D168
:100EE8000A9A236812F8011B1961731E9BB22168C4
:100EF800486910F0040FE8D0002BE6D013780B6196
:100F0800B31E9BB20A9A0232DFE70C9B00221049FB
:100F18002046FFF7D2FD0546B0B92268136843F4AE
:100F280000731360012384F83530002384F83430CB
:100F380000E00225284603B0BDE8F0830225F9E762
:100F48000225F7E70325F5E70325F3E7020010007C
:100F5800800001002DE9F04F87B0109EBDF8444095
:100F6800DDF8488090F83570FFB2012F40F0E1803D
:100F78000546894692469B46002E00F0DB80002CF1
:100F880000F0D88042F2107301227349FFF795FDF3
:100F9800002840F0D38095F83430012B00F0D08041
:100FA800012385F834302A68136823F4006313603A
:100FB800422385F835300023AB63CDF800805B46CB
:100FC800524649462846FFF72FFE814658B1AB6B7B
:100FD800042B04D0002385F834300327AAE000232B
:100FE80085F83430A6E0012C08D0022C16D02B68E6
:100FF8005A6905929B690593059B47E02A6813681F
:1010080023F4806313602B685A6903929A690392E8
:10101800039A1A6842F400721A6037E02A68136863
:1010280023F4806313602A68136843F40063136031
:101038002B685A6904929B690493049B26E04346F3
:10104800002246492846FFF738FD00287AD12B6848
:101058001B6906F8013B013CA4B217E04346002295
:101068003F492846FFF729FD00286DD12A681368F3
:1010780043F4007313602B681A69334603F8022B94
:101088002A6812697270023CA4B21E46002C48D02D
:10109800032C2AD8012CD2D0022CDFD043460022C0
:1010A8002F492846FFF709FD00284FD12A68136801
:1010B80023F4806313602B681B6933704346002256
:1010C80027492846FFF7F9FC002841D12A68136808
:1010D80043F4007313602B681B6973702B681B69DA
:1010E800B370033CA4B20336D0E7434600221B4941
:1010F8002846FFF7E2FC68BB2B681A69334603F8F9
:10110800012B621E92B22968486910F0040F05D0BD
:101118000A6902361A70023CA4B2B7E714461E46A2
:10112800B4E7012385F83530002385F834304F467D
:1011380000E00227384607B0BDE8F08F0227F9E73C
:101148000227F7E70327F5E70327F3E70327F1E784
:101158000327EFE70327EDE7020010004000010036
:1011680004000100064A136923F0040313610129EE
:1011780003D040BF20BF20BF704730BF704700BFBB
:1011880000ED00E030B583B00446036813F0010FAA
:1011980019D0A54B9B6803F00C03042B0AD0A24B73
:1011A8009B6803F00C03082B32D19F4B5B6813F448
:1011B800800F2DD09C4B1B6813F4003F03D063684D
:1011C800002B00F09481236813F0020F71D0964B26
:1011D8009B6813F00C0F55D0934B9B6803F00C03DE
:1011E800082B4AD0E368002B00F08B808F4B01223C
:1011F8001A60FFF77FFA05468B4B1B6813F0020F46
:1012080070D1FFF777FA401B6428F5D9032073E102
:10121800854B00229A70FFF76DFA0546824B1B68D2
:1012280013F4003F06D0FFF765FA431B642BF5D98A
:10123800032061E122797C4B9A70636873B1FFF7F0
:1012480059FA0546784B1B6813F4003FBBD1FFF7EA
:1012580051FA401B6428F5D903204DE1FFF74AFAFB
:101268000546714B1B6813F4003FACD0FFF742FAF8
:10127800401B6428F5D903203EE16B4B5B6813F4EF
:10128800800FAFD1684B1B6813F0020F03D0E368DF
:10129800012B40F02E816448036823F0F80321698C
:1012A800F82292FAA2F2B2FA82F201FA02F2134397
:1012B8000360236813F0080F48D063699BB35B4B46
:1012C8000122C3F8802EFFF715FA0546564B5B6FCF
:1012D80013F0020F3AD1FFF70DFA401B6428F5D935
:1012E800032009E15048036823F0F8032169F82234
:1012F80092FAA2F2B2FA82F201FA02F213430360FE
:10130800D7E74A4B00221A60FFF7F4F90546464B27
:101318001B6813F0020FCCD0FFF7ECF9401B6428D0
:10132800F5D90320E8E0414B0022C3F8802EFFF7EF
:10133800E1F905463C4B5B6F13F0020F06D0FFF74F
:10134800D9F9401B6428F5D90320D5E0236813F0A8
:10135800040F1FD1A369002B00F0CD80324A926898
:1013680002F00C02082A00F0C980022B73D02F4B20
:1013780000221A66FFF7BEF904462B4B1B6813F0D0
:10138800007F00F0B280FFF7B5F9001B6428F4D99C
:101398000320B1E0244B1A6C42F080521A641B6C93
:1013A80003F080530193019B214A136843F480732F
:1013B8001360FFF79FF905461D4B1B6813F4807FE8
:1013C80006D1FFF797F9401B6428F5D9032093E06D
:1013D800154B002283F87020FFF78CF90546124B55
:1013E8001B6F13F0020F08D0FFF784F9401B41F27E
:1013F80088339842F3D903207EE0227A0A4B83F897
:101408007020A368B3B1FFF775F90546064B1B6F4B
:1014180013F0020F9ED1FFF76DF9401B41F288339C
:101428009842F3D9032067E00038024000004742A1
:1014380000700040FFF75EF90546314B1B6F13F053
:10144800020F87D0FFF756F9401B41F288339842C4
:10145800F3D9032050E02B4B00221A66FFF74AF914
:101468000546274B1B6813F0007F06D0FFF742F9AB
:10147800401B6428F5D903203EE0E369226A134340
:10148800616A47F6C07292FAA2F2B2FA82F201FADF
:1014980002F21343A26A5208013A4FF4403191FA1A
:1014A800A1F1B1FA81F18A401343E16A4FF0706209
:1014B80092FAA2F2B2FA82F201FA02F21343104A45
:1014C8005360104B01221A66FFF714F904460C4BBF
:1014D8001B6813F0007F06D1FFF70CF9001B642886
:1014E800F5D9032008E0002006E0002004E00120F0
:1014F80002E0012000E0002003B030BD0120FBE73E
:10150800003802400000474270B504460D46944B2F
:101518001B6803F00F038B4280F08280CAB2904BA5
:101528001A701B6803F00F038B4240F011810368A7
:1015380013F0020F06D08B4A936823F0F0038168FA
:101548000B439360236813F0010F00F0E580636894
:10155800012B27D09A1E012A2BD9824A126812F031
:10156800020F00F0F7807F498A6822F003021343D4
:101578008B60FFF7BFF805466368012B20D0022B6C
:101588002ED0032B3CD0774B9B6813F00C0F00F048
:10159800C380FFF7AFF8401B41F288339842F2D975
:1015A8000320D4E06F4A126812F4003FDBD1012017
:1015B800CDE06C4A126812F0007FD4D10120C6E059
:1015C800684B9B6803F00C03042B00F0A580FFF721
:1015D80091F8431B41F288329342F1D90320B6E0D7
:1015E800604B9B6803F00C03082B00F09580FFF715
:1015F80081F8401B41F288339842F1D90320A6E0D4
:10160800584B9B6803F00C03032B00F08580FFF711
:1016180071F8401B41F288339842F1D9032096E0D3
:10162800036813F0020F06D04E4A936823F0F003C4
:1016380081680B439360236813F0010F64D06368DB
:10164800012B26D09A1E012A2AD9464A126812F07E
:10165800020F00F0818043498A6822F00302134395
:101668008B60FFF747F806466368012B1FD0022BF3
:101678002CD0032B39D03B4B9B6813F00C0F43D075
:10168800FFF738F8801B41F288339842F3D90320DA
:101698005DE0344A126812F4003FDCD1012056E0C4
:1016A800304A126812F0007FD5D101204FE02D4B4F
:1016B8009B6803F00C03042B26D0FFF71BF8831B51
:1016C80041F288329342F2D9032040E0254B9B68CF
:1016D80003F00C03082B17D0FFF70CF8801B41F21E
:1016E80088339842F2D9032031E01E4B9B6803F0FF
:1016F8000C03032B08D0FEF7FDFF801B41F2883353
:101708009842F2D9032022E0EAB2154B1A701B68FE
:1017180003F00F03AB4221D1236813F0040F06D066
:10172800104A936823F4E053E1680B4393602368FD
:1017380013F0080F07D00B4A936823F4604321691C
:1017480043EAC10393600020FEF7A6FF002070BDA6
:101758000120FCE70120FAE70120F8E70120F6E77D
:10176800003C024000380240224B9B6803F00C0307
:10177800042B3AD0082B3AD11E4A536803F03F0392
:10178800526812F4800F1FD01B48B0FBF3F0194BBE
:101798005A6847F6C0731A4093FAA3F3B3FA83F36F
:1017A80022FA03F303FB00F0124B5B6803F44033A7
:1017B8004FF4403292FAA2F2B2FA82F2D3400133E5
:1017C8005B00B0FBF3F070470C48B0FBF3F0094B3B
:1017D8005A6847F6C0731A4093FAA3F3B3FA83F32F
:1017E80022FA03F303FB00F0DEE7034870470348DF
:1017F800704700BF0038024040787D010024F400A3
:1018080008B5FFF7B1FF084B9B6803F0F003F0221F
:1018180092FAA2F2B2FA82F2D340044AD35CD840D8
:10182800034B186008BD00BF00380240B429000807
:101838003804002008B5FFF7E3FF074B9B6803F463
:10184800E0534FF4E05292FAA2F2B2FA82F2D34095
:10185800024AD35CD84008BD00380240B4290008C9
:1018680008B5FFF7CDFF074B9B6803F460434FF4BF
:10187800604292FAA2F2B2FA82F2D340024AD35CF0
:10188800D84008BD00380240B4290008C0B110B5DE
:1018980004460379012B15D00123037143795BB109
:1018A800022363712268136843F004031360012361
:1018B80063710020207110BD037100F023FEEFE773
:1018C800012070470220F6E70379012B28D070B574
:1018D80004460D46012303714379DBB2012B03D083
:1018E80001200023237170BD02234371FEF702FF1C
:1018F800064623685A6812F0010F0AD1FEF7FAFE6D
:10190800801B0228F5D90423637100232371032067
:10191800E9E79B68A3602B60012363710020E0E77F
:10192800022070477047704710B5044603685A682C
:1019380012F0200F03D15B6813F0400F08D0042386
:1019480063712046FFF7EFFF23686FF060025A606B
:1019580023685A6812F0010F0AD01A6822F00802A8
:101968001A6023689968A1606379DBB2042B00D1FF
:1019780010BD012363712046FFF7D4FFF8E790F804
:101988003930DBB2122B03D0322B01D00220704742
:101998008368B3F5805F16D0036A5A1C02621A780E
:1019A80003685A60C38C013B9BB2C3844BB902687D
:1019B800D36823F08003D3600268D36843F0400300
:1019C800D36000207047036A1B880268C3F30803CA
:1019D800536003691BB9036A02330362E2E7036ACF
:1019E80001330362DEE70000F8B5044601680A69BE
:1019F80022F44052C36813430B610168CA6822F499
:101A0800164222F00C0283680069034360690343AD
:101A1800E06903431343CB6021684A6922F44072AA
:101A2800A36913434B61E369B3F5004F3CD02368C6
:101A38006E4A934200F0A68002F58062934200F05D
:101A4800A180FFF7F7FE00EB800000EB80006668DE
:101A5800B600B0FBF6F6664FA7FB063676093601E8
:101A6800FFF7E8FE00EB800000EB80006568AD0042
:101A7800B0FBF5F5FFF7DEFE00EB800000EB800021
:101A880063689B00B0FBF3F0A7FB003040096423B8
:101A980003FB105000013230A7FB0037C7F3431790
:101AA800236837439F609FE02368504A934236D0AB
:101AB80002F58062934232D0FFF7BCFE00EB800053
:101AC80000EB800066687600B0FBF6F6484FA7FB8F
:101AD800063676093601FFF7ADFE00EB800000EB15
:101AE800800065686D00B0FBF5F5FFF7A3FE00EB1D
:101AF800800000EB800063685B00B0FBF3F3A7FB9A
:101B080003235B09642202FB13531B013233A7FB37
:101B18000337C7F34317236837439F6064E0FFF731
:101B28009FFE00EB800000EB800066687600B0FB4B
:101B3800F6F62F4FA7FB063676093601FFF790FE1B
:101B480000EB800000EB800065686D00B0FBF5F5E8
:101B5800FFF786FE00EB800000EB800063685B0007
:101B6800B0FBF3F3A7FB03235B09642202FB1353C7
:101B78001B013233A7FB0337C7F3431723683743E7
:101B88009F6031E0FFF76CFE00EB800000EB800007
:101B98006668B600B0FBF6F6154FA7FB0636760961
:101BA8003601FFF75DFE00EB800000EB8000656802
:101BB800AD00B0FBF5F5FFF753FE00EB800000EB3E
:101BC800800063689B00B0FBF3F0A7FB003040097E
:101BD800642303FB105000013230A7FB0037C7F322
:101BE8004317236837439F60F8BD00BF00100140CA
:101BF8001F85EB5148B310B5044690F83930FBB156
:101C0800022384F839302268D36823F40053D36060
:101C18002046FFF7E9FE2268136923F49043136115
:101C28002268536923F02A0353612268D36843F476
:101C38000053D3600020E063012384F8393010BDDD
:101C480080F8383000F0E0FDDAE70120704770478F
:101C580008B50268D36823F04003D36090F83930A0
:101C6800DBB2322B10D00268D36823F48073D360C0
:101C78000268536923F001035361012380F8393066
:101C8800FFF7E5FF002008BD222380F83930F7E789
:101C9800704708B590F83930DBB2222B01D0322BCF
:101CA8004ED18368B3F5805F29D00369002B3AD100
:101CB80003685A68836A591C81621A70C38D013B94
:101CC8009BB2C385002B3DD10268D36823F0200363
:101CD800D36090F83930DBB2322B2DD00268D3684C
:101CE80023F48073D3600268536923F001035361BE
:101CF800012380F83930FFF7CBFF002023E0826A08
:101D0800036943B903685B68C3F308031380836AF4
:101D180002338362D2E703685B68DBB21380836AAD
:101D280001338362CAE703685B68826A511C816277
:101D380003F07F031370C1E7122380F83930DAE724
:101D4800022000E0002008BD704710B584B00446AA
:101D580003681968DA6811F0010F0BD002F4807279
:101D680042B11A6800925A680092009AC26B42F017
:101D78000102C26319685A6902F0010211F0020FE8
:101D880009D042B11A6801925A680192019AE26B2D
:101D980042F00402E26319685A6902F0010211F084
:101DA800040F09D042B11A6802925A680292029A44
:101DB800E26B42F00202E26319685A6902F001021A
:101DC80011F0080F09D042B11A6803925A680392B9
:101DD800039AE26B42F00802E2631A68DB6803F0D8
:101DE800200312F0200F00D0ABB923681A68DB6813
:101DF80003F0800312F0800F00D083B923681A68BB
:101E0800DB6803F0400312F0400F00D05BB9E36BCE
:101E18006BB904B010BD2046FFF73BFFE5E720464D
:101E2800FFF7ADFDEAE72046FFF712FFEFE70123D2
:101E380084F839302046FFF787FFEAE710B50446F3
:101E4800012240210348FEF7DDFD2046FEF758FC3D
:101E580010BD00BF0018024010B504460022402102
:101E68000348FEF7CFFD2046FEF74AFC10BD00BF31
:101E780000180240D0B582B02F4BD3E900672F4A33
:101E8800002330463946FEF7BFF92D4C20702D4A05
:101E9800002330463946FEF7B7F90A220023FEF739
:101EA800B3F96270284A002330463946FEF7ACF988
:101EB8000A220023FEF7A8F9A27042F2107200234A
:101EC80030463946FEF7A0F90A220023FEF79CF9AE
:101ED800E2704FF47A72002330463946FEF794F9DF
:101EE8000A220023FEF790F922716422002330466B
:101EF8003946FEF789F90A220023FEF785F962714F
:101F08000A22002330463946FEF77EF90A220023CA
:101F1800FEF77AF9A2710A22002330463946FEF705
:101F280073F9E271082300932346102270210748B1
:101F380000F0DEFC02B0D0BD680400208096980056
:101F48007804002040420F00A08601008804002089
:101F58000338192820D8DFE800F00D1F1F1F1F1FA6
:101F68001F1D1B191F1F1F1F1F1715131F1F1F1FA3
:101F78001F110F210020704702207047032070476F
:101F880004207047052070470620704707207047D7
:101F980008207047092070471020704701207047BB
:101FA80010B53B4B1878431E182B46D8DFE803F0D2
:101FB8003441453D454545452C45454545454545FF
:101FC8001F454545454545450D00324A1368526849
:101FD800314999424FF00001914105D32D49013310
:101FE80042F100020B604A60FFF744FF10BD294A26
:101FF8001368526853EA0201F8D02649013B42F1BE
:10200800FF320B604A60F1E7224B00200021C3E950
:102018000001FFF72FFFE9E71E4B1BA1D1E90001E3
:10202800C3E90001FFF726FFE0E7022000F08AFA83
:10203800DCE7032000F086FAD8E7FFF789FF1028CD
:10204800D4D014490C684A684FEA820C4CEA947C54
:10205800A3001B1942EB0C02DB185241C31842F1D2
:1020680000020B604A600D4999424FF0000393410A
:1020780005D2084B04A1D1E90001C3E90001FFF72B
:10208800F9FEB3E7AFF30080FFE0F50500000000BC
:102098006004002068040020FEE0F505FFE0F50577
:1020A80008B50548054B0360FEF7B0FB00B908BD4D
:1020B80000F078F9FBE700BF800400200030024000
:1020C8000268094B9A4200D0704782B003F500635A
:1020D8001A6B42F480521A631B6B03F4805301930A
:1020E800019B02B0704700BF003002402DE9F04765
:1020F8008CB000240794089409940A940B94534BC9
:102108001A6B42F020021A631A6B02F02002009246
:10211800009A1A6B42F080021A631A6B02F080026E
:102128000192019A1A6B42F004021A631A6B02F0C8
:1021380004020292029A1A6B42F002021A631A6BA4
:1021480002F002020392039A1A6B42F008021A6321
:102158001A6B02F008020492049A1A6B42F04002C9
:102168001A631A6B02F040020592059A1A6B42F044
:1021780001021A631B6B03F001030693069BDFF849
:10218800D0A022464FF480615046FEF73BFC314F09
:10219800224601213846FEF735FCDFF8BC9022467E
:1021A8004FF400414846FEF72DFCDFF8B080224688
:1021B80040214046FEF726FC294E22464FF40041B6
:1021C8003046FEF71FFC4FF48063079301250895FE
:1021D80009940A9407A95046FEF72AFB0795089523
:1021E80009940A9407A93846FEF722FB4FF40047E2
:1021F8000797089509940A9407A94846FEF718FB1B
:102208004FF400530793174B0893099407A91648EE
:10221800FEF70EFB40230793089509940A9407A933
:102228004046FEF705FB0797089509940A9407A905
:102238003046FEF7FDFA224621462820FEF78EFAA0
:102248002820FEF7C3FA0CB0BDE8F087003802403A
:102258000014024000080240000402400018024036
:10226800001C024000002110000C024008B50B4879
:102278000B4B03600B4B436000238360C3604FF438
:102288008042026143618361C3610362FEF752FDCC
:1022980000B908BD00F086F8FBE700BF88040020FD
:1022A80000540040A086010010B588B000230393B5
:1022B80004930593069307930268134B9A4201D03F
:1022C80008B010BD114C236B43F002032363236B4A
:1022D80003F002030193019BC02303931223049389
:1022E80001230593032306930423079303A90848AE
:1022F800FEF79EFA236C43F400132364236C03F463
:1023080000130293029BDBE70054004000380240B0
:1023180000040240B0F5005F14D07047012200921B
:102328000A4B234471210A4800F0ACFA0134042C0A
:10233800F4DD064B1A78074B1A70074B00221A6017
:1023480002B010BD10B582B00024F0E77004002080
:102358008804002060040020C404002008B50F4A47
:102368001368013313600E4B1B781BB1023BDBB2C1
:10237800012B03D8094B00221A6008BD074B1A68C5
:1023880001321A601A6842F20F739A42F5D9034B68
:1023980000221A60052000F0D5F8EEE7C4040020FA
:1023A8003404002072B6FEE700B595B03022002153
:1023B80008A8FEF7EBF8002303930493059306930C
:1023C80007931F4B1A6C42F080521A641B6C03F07F
:1023D80080530193019B1B4B1A6842F480421A6098
:1023E8001B6803F480430293029B0123089309931B
:1023F80002230E934FF480020F920F221092902224
:10240800119212930523139308A8FEF7BBFE98B9FF
:102418000F23039302230493002305934FF4A0533F
:1024280006934FF480530793032103A8FFF76CF832
:1024380020B915B05DF804FBFFF7B4FFFFF7B2FF52
:10244800003802400070004000B583B0FEF738F94C
:102458006420FEF755F9FFF7A7FFFFF747FEFFF7E0
:1024680005FF00F0B7F900F03DF8FFF719FE0EE0A0
:102478004FF48040FEF744F90023144A1370144ABD
:102488001370144B144A1A6006E000F01FF9114B40
:102498001A68114B9A42EBD10C4B1B78022BF4D0E3
:1024A8000E4B1B685B6813F0010FEED001A90B48B7
:1024B800FFF70AFA01980A4BA3FB0023DB0803EB9A
:1024C80083035A00801AFEF71BF9DEE73404002064
:1024D8003504002020050020EFBEADDEC804002032
:1024E800CDCCCCCC08B50548054B0360FFF7CEF939
:1024F80000B908BDFFF756FFFBE700BFC80400207E
:102508000008065002680D4B9A4200D0704700B58B
:1025180083B00B4B5A6B42F040025A635B6B03F07B
:1025280040030193019B002211465020FEF716F943
:102538005020FEF74BF903B05DF804FB0008065085
:102548000038024072B611490B78114AD054013351
:102558005A4203F0070302F0070258BF53420B70B8
:102568000C4B1B78082B04D001330A4A137062B64F
:10257800704709490B7801335A4203F0070302F008
:10258800070258BF53420B70F1E700BFDE0400207A
:10259800D4040020DD040020DC0400200B4B187854
:1025A80090B172B60A490B780A4AD05C01335A4294
:1025B80003F0070302F0070258BF53420B70034AA7
:1025C8001378013B137062B6704700BFDD0400202A
:1025D800DC040020D404002008B5FEF79FF8012190
:1025E8000020FEF7BFFDFEF7A0F8024B1A78024B59
:1025F8001A7008BD350400203404002008B50428EA
:1026080004D0052809D0012803D008BDFFF7C8FC6D
:10261800FBE7054B02221A70F7E7044B01221A70F8
:10262800014B00221A70F0E7340400203504002022
:1026380010B5002406E00220FFF700FC0220FFF797
:102648000BFC0134632CF6DD014B01221A7010BD1E
:102658003404002008B5032809D00D4A13685268CD
:1026680053EA020107D10B4B03221A7008BD094B2C
:1026780004221A70FAE70649013B42F1FF320B6067
:102688004A60FFF7F7FB3220FEF73AF8EEE700BFA3
:102698006804002034040020042802D0052808D04B
:1026A8007047074B1B78022B09D1064B02221A7080
:1026B8007047054B04221A70024B00221A707047AB
:1026C80060040020340400203504002008B5FFF71A
:1026D80065FF154B1B78042B09D8DFE803F00309C5
:1026E80010171E00FFF778FF104B10221A6008BD64
:1026F800FFF784FF0D4B4FF480721A60F7E7FFF77E
:10270800A9FF0A4B4FF480321A60F0E7FFF790FFF9
:10271800064B4FF480521A60E9E7FFF7BDFF034B01
:102728004FF480121A60E2E73404002030040020DD
:1027380082B00A4B5A6C42F480425A645A6C02F4D2
:1027480080420092009A1A6C42F080521A641B6C04
:1027580003F080530193019B02B070470038024098
:1027680008B5FFF7FBFD08BD08B50248FFF7EDFA0D
:1027780008BD00BFE004002008B54FF40050FEF784
:1027880047F908BD08B50248FFF7CEF808BD00BFF5
:10279800C80400200C4B1A6842F001021A6000219C
:1027A80099601A6822F0847222F480321A60074A0B
:1027B8005A601A6822F480221A60D960044B4FF0DC
:1027C80000629A60704700BF003802401030002451
:1027D80000ED00E008B50A480A4B03604FF4E13306
:1027E800436000238360C36003610C2242618361FC
:1027F800C361FFF7FFF900B908BDFFF7D3FDFBE799
:10280800E00400200010014000B589B000230393C4
:102818000493059306930793026803F1804303F535
:1028280088339A4202D009B05DF804FB03F594336B
:102838005A6C42F010025A645A6C02F0100201926B
:10284800019A1A6B42F001021A631B6B03F0010331
:102858000293029B4FF4C063039302230493032360
:1028680006930723079303A90548FDF7E1FF002214
:1028780011462520FDF772FF2520FDF7A7FFD2E7B7
:10288800000002402DE9F04385B080460F46164609
:102898001D469DF83090084C24680294CDF80490A9
:1028A80000950123324639464046FEF753FB00287F
:1028B800F1D105B0BDE8F0833C040020F0B587B045
:1028C80007460E4615468DF81730084B1B680293CD
:1028D800012301930DF1170400942A463146384626
:1028E800FEF7B2FA0028F0D107B0F0BD3C04002092
:1028F8002DE9F04180460F461C469DF818300CE043
:10290800561CF6B214F8013B39464046FFF7D6FF8D
:102918000520FDF7F5FE2B4632465D1EEDB2002B75
:10292800EED1BDE8F0810000DFF834D0002103E0EB
:102938000C4B5B58435004310B480C4B42189A42DD
:10294800F6D30B4A02E0002342F8043B094B9A42B3
:10295800F9D3FFF71FFFFDF7F5FDFFF775FD70478A
:1029680000000220D82900080000002040040020B0
:102978004004002020050020FEE70000024B13B1B0
:102988000248FDF7C3BD704700000000210500089C
:10299800F8B500BFF8BC08BC9E467047F8B500BF44
:0829A800F8BC08BC9E46704714
:1029B00008000020000000000102030401020304DB
:0429C00006070809F5
:0829C4007CD8FF7F0100000038
:0829CC0085290008F101000853
:0429D400C90100082D
:1029D800080000200000000000000000F4020020B1
:1029E8005C030020C4030020000000000000000079
:1029F80000000000000000000000000000000000CF
:102A080000000000000000000000000000000000BE
:102A180000000000000000000000000000000000AE
:102A2800000000000000000000000000000000009E
:102A3800000000000000000000000000000000008E
:102A4800000000000000000000000000000000007E
:102A5800000000000000000000000000000000006E
:102A6800000000000000000000000000000000005E
:102A7800000000000000000000000000000000004E
:102A880001000000000000000E33CDAB34126DE6EB
:102A9800ECDE05000B000000000000000000000054
:102AA800000000000000000000000000000000001E
:102AB800000000000000000000000000000000000E
:102AC80000000000000000000000000000000000FE
:102AD80000000000000000000000000000000000EE
:102E080001000000010100000024F400FFFF0000A1
:040000050800293195
:00000001FF
